:100000000C9434000C9451000C9451000C94510049
:100010000C9451000C9451000C9451000C9451001C
:100020000C9451000C9451000C9451000C94FE055A
:100030000C9451000C9451000C9451000C945100FC
:100040000C9451000C9451000C9451000C945100EC
:100050000C9451000C9451000C9451000C945100DC
:100060000C9451000C94510011241FBECFEFD8E026
:10007000DEBFCDBF11E0A0E0B1E0E4EFFBE102C0E4
:1000800005900D92A236B107D9F711E0A2E6B1E0D2
:1000900001C01D92AE36B107E1F70E94C7080C946B
:1000A000F80D0C940000FC018081882399F090E009
:1000B0009F5FDF01A90FB11D8C918111F9CF9923A9
:1000C00049F08091C00085FFFCCF81918093C600EC
:1000D0009150B9F78091C00086FFFCCF08959091B0
:1000E0007C00907F90937C0090917C00982B909363
:1000F0007C0080917A00806480937A0080917A00FD
:1001000086FDFCCF2091780030917900932F80E01C
:10011000822B9370FB019183808308954F925F92AD
:100120006F927F928F929F92AF92BF92CF92DF9207
:10013000EF92FF920F931F93CF93DF938B019C015C
:10014000A4E6B0E00E94350D2AE096958795779554
:1001500067952A95D1F7611571058105910509F01B
:1001600048C0D0E3812C912C5401C0E084E6C82E15
:10017000D12CE12CF12C9AE0492E512C612C712CC0
:100180000CC0D083CF5FC701B601A30192010E94CA
:10019000510D69017A01C330D9F0C501B401A7013D
:1001A00096010E94510DF801EC0FF11D211531054A
:1001B0004105510531F3822F805D8083C701B6016F
:1001C0000E94410D861A970AA80AB90AD0E3DACF2D
:1001D000DF91CF911F910F91FF90EF90DF90CF9023
:1001E000BF90AF909F908F907F906F905F904F9057
:1001F00008954B015C01D0E2B8CF00005F9A611511
:10020000710509F4BCC0FC01CB018E0F9F1F419109
:100210003BB1337C3BB92BB1342F32953F70330F58
:10022000330F322B3BB95E9A24E600000000000039
:10023000000000000000000000002150B1F75E98AF
:1002400024E60000000000000000000000000000A4
:1002500000002150B1F724E600000000000000007B
:1002600000000000000000002150B1F724E600006B
:10027000000000000000000000000000000021500D
:10028000B1F724E6000000000000000000000000BC
:10029000000000002150B1F73BB1337C3BB93BB1CA
:1002A000242F2F70220F220F232B2BB95E9A24E6C6
:1002B000000000000000000000000000000000003E
:1002C0002150B1F75E9824E6000000000000000015
:1002D00000000000000000002150B1F724E60000FB
:1002E000000000000000000000000000000021509D
:1002F000B1F724E60000000000000000000000004C
:10030000000000002150B1F724E6000000000000CA
:10031000000000000000000000002150B1F724E6BA
:1003200000000000000000000000000000000000CD
:100330002150B1F724E6000000000000000000009A
:100340000000000000002150B1F724E6000000008A
:100350000000000000000000000000002150B1F784
:1003600024E6000000000000000000000000000083
:1003700000002150B1F7E817F90709F048CF5F985E
:10038000089584E600000000000000000000000066
:10039000000000008150B1F784E60000000000007A
:1003A000000000000000000000008150B1F784E66A
:1003B000000000000000000000000000000000003D
:1003C0008150B1F784E6000000000000000000004A
:1003D0000000000000008150B1F708950F931F93B3
:1003E000CF93DF9300D01F92CDB7DEB78B012BB137
:1003F000237C2BB95D9A5E9A24E600000000000081
:10040000000000000000000000002150B1F75E98DD
:1004100024E60000000000000000000000000000D2
:1004200000002150B1F724E60000000000000000A9
:1004300000000000000000002150B1F724E6000099
:10044000000000000000000000000000000021503B
:10045000B1F724E6000000000000000000000000EA
:10046000000000002150B1F72BB1237C2BB92BB138
:100470002BB95E9A24E60000000000000000000096
:100480000000000000002150B1F75E9824E6000053
:1004900000000000000000000000000000002150EB
:1004A000B1F724E60000000000000000000000009A
:1004B000000000002150B1F724E600000000000019
:1004C000000000000000000000002150B1F724E609
:1004D000000000000000000000000000000000001C
:1004E0002150B1F724E600000000000000000000E9
:1004F0000000000000002150B1F724E600000000D9
:100500000000000000000000000000002150B1F7D2
:1005100024E60000000000000000000000000000D1
:1005200000002150B1F724E60000000000000000A8
:1005300000000000000000002150B1F7BE016F5F15
:100540007F4F0E948E0063E070E0CE0101960E9412
:10055000FD008BB1837C8BB95D9A5E9A84E60000C6
:1005600000000000000000000000000000008150BA
:10057000B1F75E9884E60000000000000000000073
:100580000000000000008150B1F784E60000000088
:100590000000000000000000000000008150B1F7E2
:1005A00084E60000000000000000000000000000E1
:1005B00000008150B1F784E6000000000000000058
:1005C00000000000000000008150B1F78BB1837C77
:1005D0008BB95C9A5E9A84E600000000000000007F
:1005E00000000000000000008150B1F75E9884E632
:1005F00000000000000000000000000000000000FB
:100600008150B1F784E60000000000000000000007
:100610000000000000008150B1F784E600000000F7
:100620000000000000000000000000008150B1F751
:1006300084E6000000000000000000000000000050
:1006400000008150B1F784E60000000000000000C7
:1006500000000000000000008150B1F784E60000B7
:1006600000000000000000000000000000008150B9
:10067000B1F784E600000000000000000000000068
:10068000000000008150B1F784E600000000000087
:10069000000000000000000000008150B1F7BE0122
:1006A0006F5F7F4FC8010E948E0063E070E0CE0153
:1006B00001960E94FD000F900F900F90DF91CF9157
:1006C0001F910F9108955E9A84E6000000000000DB
:1006D000000000000000000000008150B1F75E98AB
:1006E00084E60000000000000000000000000000A0
:1006F00000008150B1F784E6000000000000000017
:1007000000000000000000008150B1F784E6000006
:100710000000000000000000000000000000815008
:10072000B1F784E6000000000000000000000000B7
:10073000000000008150B1F708959BB1937C9BB9F4
:100740002BB1982F92959F70990F990F922B9BB96F
:100750005E9A94E600000000000000000000000027
:10076000000000009150B1F75E9894E60000000090
:100770000000000000000000000000009150B1F7F0
:1007800094E60000000000000000000000000000EF
:1007900000009150B1F794E6000000000000000056
:1007A00000000000000000009150B1F794E6000046
:1007B0000000000000000000000000000000915058
:1007C000B1F79BB1937C9BB99BB18F70880F880F59
:1007D000892B8BB95E9A84E60000000000000000BF
:1007E00000000000000000008150B1F75E9884E630
:1007F00000000000000000000000000000000000F9
:100800008150B1F784E60000000000000000000005
:100810000000000000008150B1F784E600000000F5
:100820000000000000000000000000008150B1F74F
:1008300084E600000000000000000000000000004E
:1008400000008150B1F708954F925F926F927F92AE
:100850008F929F92AF92BF92CF92DF92EF92FF92D0
:100860000F931F93CF93DF9300D000D0CDB7DEB7A7
:10087000162F9BB1937C9BB95D9A5E9A94E600001B
:100880000000000000000000000000000000915087
:10089000B1F75E9894E60000000000000000000040
:1008A0000000000000009150B1F794E60000000045
:1008B0000000000000000000000000009150B1F7AF
:1008C00094E60000000000000000000000000000AE
:1008D00000009150B1F794E6000000000000000015
:1008E00000000000000000009150B1F79BB1937C24
:1008F0009BB99BB19BB95E9A94E600000000000092
:10090000000000000000000000009150B1F75E9868
:1009100094E600000000000000000000000000005D
:1009200000009150B1F794E60000000000000000C4
:1009300000000000000000009150B1F794E60000B4
:1009400000000000000000000000000000009150C6
:10095000B1F794E600000000000000000000000075
:10096000000000009150B1F794E600000000000084
:10097000000000000000000000009150B1F794E674
:100980000000000000000000000000000000000067
:100990009150B1F794E60000000000000000000054
:1009A0000000000000009150B1F794E60000000044
:1009B0000000000000000000000000009150B1F7AE
:1009C000E82FF0E0EE0FFF1FE050FF4F68E070E00F
:1009D000808191810E94FD008BB1837C8BB98BB1AA
:1009E00080638BB95E9A84E600000000000000007E
:1009F00000000000000000008150B1F75E9884E61E
:100A000000000000000000000000000000000000E6
:100A10008150B1F784E600000000000000000000F3
:100A20000000000000008150B1F784E600000000E3
:100A30000000000000000000000000008150B1F73D
:100A400084E600000000000000000000000000003C
:100A500000008150B1F78BB1837C8BB98BB18BB91E
:100A60005E9A84E600000000000000000000000024
:100A7000000000008150B1F75E9884E6000000009D
:100A80000000000000000000000000008150B1F7ED
:100A900084E60000000000000000000000000000EC
:100AA00000008150B1F784E6000000000000000063
:100AB00000000000000000008150B1F784E6000053
:100AC0000000000000000000000000000000815055
:100AD000B1F784E600000000000000000000000004
:100AE000000000008150B1F784E600000000000023
:100AF000000000000000000000008150B1F784E613
:100B000000000000000000000000000000000000E5
:100B10008150B1F784E600000000000000000000F2
:100B20000000000000008150B1F7212F30E0A8EE56
:100B3000B3E00E94350D24E630E040E050E00E9432
:100B4000510D49015A01211531054105510509F0A1
:100B500053C000E310E038EEC32E33E0D32EE12C77
:100B6000F12C4AE0442E512C612C712C0CC00083D6
:100B70001F5FC701B601A30192010E94510D6901D7
:100B80007A011430F1F0C501B401A70196010E9469
:100B9000510DE1E0F0E0EC0FFD1FE10FF11D21151B
:100BA00031054105510519F3822F805D8083C7010E
:100BB000B6010E94410D861A970AA80AB90A00E3F5
:100BC000D7CF64E070E0CE0101960E94FD000F9047
:100BD0000F900F900F90DF91CF911F910F91FF9089
:100BE000EF90DF90CF90BF90AF909F908F907F90CD
:100BF0006F905F904F90089500E2ACCF1F920F92DC
:100C00000FB60F9211242F933F938F939F9386B12A
:100C1000982F9C732091640182FD04C0392F3227E4
:100C200032FF6FC0309163013B7F309363011092BC
:100C3000650183FD04C0392F322733FF52C0309144
:100C40006301377F309363011092660184FD04C015
:100C5000392F322734FF36C0309163013F7E309305
:100C600063011092670185FD03C0292725FF1BC082
:100C7000809163018F7D809363011092680190934E
:100C80006401809162018F3F29F0809162018F5F42
:100C9000809362019F918F913F912F910F900FBE92
:100CA0000F901F901895809168018F5F8093680165
:100CB0008C3029F7809163018062809363011092E8
:100CC0006801DDCF309167013F5F309367013C30B1
:100CD00051F63091630130613093630110926701E6
:100CE000C2CF309166013F5F309366013C3009F01E
:100CF000ADCF30916301386030936301109266018B
:100D0000A5CF309165013F5F309365013C3009F01C
:100D100090CF30916301346030936301109265018C
:100D200088CFA8E1B0E0E7E9F6E00C948E0D6D8B7A
:100D30007E8B8F8B988F298B3A8B4B8B5C8BBE0174
:100D4000675F7F4FCE0145960E94F707BE016F5F38
:100D50007F4FCE0141960E94F7078985823058F077
:100D60008981823040F0BE016F5F7F4FCE010996CE
:100D70000E94660801C08FEF6896E2E00C94AA0D0D
:100D8000A8E0B0E0E6ECF6E00C94880D8B019C0145
:100D90001A82611571058105910519F482E0898334
:100DA0005DC083E089834EE150E05C834B83C901E1
:100DB000B8010E94B50D019797FF39C0EE27FF27B4
:100DC000E81BF90B41E050E060E070E00E2E04C03B
:100DD000440F551F661F771F0A94D2F741505109DF
:100DE000610971094023512362237323C12CD12C43
:100DF0007601C394452B462B472B19F4C12CD12CDB
:100E0000760104C03695279517950795EA95D2F790
:100E10000C291D292E293F290D831E832F833887F6
:100E20002EE130E0281B390B3C832B8317C0009741
:100E300029F40D831E832F83388710C0082E04C029
:100E4000000F111F221F331F0A94D2F70D831E8338
:100E50002F833887481B590B5C834B83CE01019647
:100E60000E9436072896E8E00C94A40D0F931F9378
:100E7000CF93FC014481558166817781C181808156
:100E8000823020F460618FEF90E0A3C0843009F4D9
:100E90009BC0823009F492C041155105610571056E
:100EA00009F48FC02281338122388FEF38070CF08C
:100EB00057C0E2E8FFEFE21BF30BEA31F10564F5FE
:100EC0008A019B010E2E04C036952795179507952C
:100ED0000A94D2F781E090E0A0E0B0E004C0880F6F
:100EE000991FAA1FBB1FEA95D2F70197A109B10963
:100EF00084239523A623B72341E050E060E070E00F
:100F0000892B8A2B8B2B19F440E050E0BA01402B3F
:100F1000512B622B732B03C040E050E0BA01DB0180
:100F2000CA018F779927AA27BB2780349105A1058D
:100F3000B10539F447FF09C0405C5F4F6F4F7F4FE9
:100F400004C0415C5F4F6F4F7F4F81E090E04115DF
:100F50005105610520E4720748F580E090E026C065
:100F6000203831058CF5DB01CA018F779927AA2734
:100F7000BB2780349105A105B10539F447FF09C0AD
:100F8000405C5F4F6F4F7F4F04C0415C5F4F6F4FBE
:100F90007F4F77FD04C0C90181589F4F07C07695E8
:100FA000679557954795C90180589F4F97E076956B
:100FB0006795579547959A95D1F70BC080E090E0DB
:100FC00005C080E090E005C08FEF90E040E050E089
:100FD000BA01982F9695C0FB97F9362F80FB37F909
:100FE000642F752F832FCF911F910F910895CF926A
:100FF000DF92EF92DC01FB01CC901196DC9011970F
:1010000012968C9112973FE7E32EE8226E2DA601EF
:1010100070E0982F991F9927991F13962C91822F72
:10102000880F892B90E027FB222720F92183009746
:1010300029F5411551056105710511F482E027C0BC
:1010400082E89FEF9383828327E0440F551F661F3A
:10105000771F2A95D1F783E0808309C0440F551F7D
:10106000661F771F82819381019793838283411545
:101070005105610580E4780788F320C08F3F910512
:1010800079F4411551056105710519F484E08083F7
:1010900019C0E4FE03C081E0808310C010820EC03E
:1010A0008F5791099383828383E0808387E0440F85
:1010B000551F661F771F8A95D1F770644483558347
:1010C00066837783EF90DF90CF900895CF93FC01F4
:1010D000DB019081923008F452C08C91823008F488
:1010E0004EC0943071F4843039F411962C9130E074
:1010F0008181281B310948C08181882309F43FC0C0
:101100003BC0843029F411968C91811138C034C0D1
:10111000923019F48230B9F735C0823069F3C18159
:1011200011968C911197C8131DC02281338112969C
:101130008D919C911397821793070CF413C0281775
:1011400039070CF417C04481558166817781149664
:101150008D919D910D90BC91A02D84179507A607A8
:10116000B70718F4C11108C00AC0481759076A0721
:101170007B0740F4C11103C02FEF3FEF05C021E012
:1011800030E002C020E030E0C901CF910895CF9354
:10119000DF93CDB7DEB72E970FB6F894DEBF0FBE44
:1011A000CDBF1C861B868AB18C638AB9579A569A22
:1011B0008BB1837C8BB95F985E9899E184E60000DF
:1011C000000000000000000000000000000081504E
:1011D000B1F784E6000000000000000000000000FD
:1011E000000000008150B1F784E60000000000001C
:1011F000000000000000000000008150B1F784E60C
:1012000000000000000000000000000000000000DE
:101210008150B1F7915009F0D1CF8BB1837C8BB95C
:101220008BB18C608BB90E9463030E94C1010E9444
:10123000C1010000000000000000000000000000EC
:1012400000008BB1837C8BB98BB18C608BB90E9411
:1012500063030E94C10182E30E949D030E94C101B9
:1012600088E20E949D030E94C1018CE00E949D03C0
:101270000E94C10181E00E949D030E94C1018FE094
:101280000E949D030E94C10181E00E949D030E9473
:10129000C10182E00E949D030E94C1011092C5001D
:1012A00087E68093C4008091C0008D7F8093C0004A
:1012B00088E08093C10086E08093C20087B18C7F74
:1012C00087B987E080937A0010927B0080E4809356
:1012D0007C0083E080937E0010927B0080917A00F6
:1012E000806880937A0048E050E06AE270E0CE01C6
:1012F00001960E94D00D89819A81AB81BC818F3E7D
:101300009E4BAD4ABE4D09F420C384E091E00E949B
:10131000530081E08093690182E380936A0184E64F
:1013200080936D0184B1836084B985B18C7F85B968
:1013300088B18C6388B987B1837C87B910926301C7
:1013400015BC7894C12C44EC642E49E0742E52E014
:10135000E52E6BE0F62EDD24D394289ABE01675F5C
:101360007F4F80E00E946F0015BC10928000709249
:10137000890060928800109285001092840010927B
:101380008200E0926F0010926201F09281006B8502
:101390007C8589859A850E94EE0116C09C01261BDA
:1013A000370BB90180E090E00E94C0062AE037EDDB
:1013B00043E251E40E94910687FFCFCF90916201F2
:1013C000809169019817D8F490916301209163018D
:1013D000892F809582238093630193FDB3C2BE0160
:1013E000635F7F4F80E00E946F0069857A858D85FD
:1013F0009E856817790790F2681B790BD3CF2898E0
:1014000015BCC394299A15BC109280007092890073
:1014100060928800109285001092840010928200E1
:10142000E0926F0010926201F0928100809162015F
:1014300090916A018917C0F4BE01635F7F4F80E01D
:101440000E946F00BE01655F7F4F81E00E946F00C8
:101450006B857C858D859E850E94EE019091620151
:1014600080916A01981740F329988BB1837C8BB9DE
:101470008BB180638BB95E9A84E6000000000000A7
:10148000000000000000000000008150B1F75E98ED
:1014900084E60000000000000000000000000000E2
:1014A00000008150B1F784E6000000000000000059
:1014B00000000000000000008150B1F784E6000049
:1014C000000000000000000000000000000081504B
:1014D000B1F784E6000000000000000000000000FA
:1014E000000000008150B1F78BB1837C8BB98BB1C8
:1014F0008BB95E9A84E60000000000000000000046
:101500000000000000008150B1F75E9884E6000002
:1015100000000000000000000000000000008150FA
:10152000B1F784E6000000000000000000000000A9
:10153000000000008150B1F784E6000000000000C8
:10154000000000000000000000008150B1F784E6B8
:10155000000000000000000000000000000000008B
:101560008150B1F784E60000000000000000000098
:101570000000000000008150B1F784E60000000088
:101580000000000000000000000000008150B1F7E2
:1015900084E60000000000000000000000000000E1
:1015A00000008150B1F784E6000000000000000058
:1015B00000000000000000008150B1F78C2D90E089
:1015C000A0E0B0E02C2D2F702A3008F4B7C1295AC2
:1015D00020936C0134E0B695A795979587953A9539
:1015E000D1F78A3008F0ACC1805D80936B0162E076
:1015F00070E08BE691E00E94FD00909163012091E4
:101600006301892F809582238093630193FFA5CE88
:101610006091690180E00E9424048BE291E00E94C5
:10162000530010E00091630190916301802F809539
:1016300089238093630103FD5DC1111161C1809114
:10164000690110E099E6892E91E0992E24E6B22EE8
:1016500005FF3BC0823008F46EC18150F4018083E5
:101660008AE391E00E945300F4012081822F90E0F0
:10167000A0E0B0E02F702A3008F454C1295A20931A
:101680006C01F4E0B695A79597958795FA95D1F7F3
:101690008A3008F445C1895A80936B01EBE6F1E08A
:1016A0009091C00095FFFCCF8093C60021E0EC36FE
:1016B000F20719F081813196F3CF8091C00086FF47
:1016C000FCCF84E191E00E94530004FF4BC0F40181
:1016D0002081822F90E0A0E0B0E04B2D50E060E050
:1016E00070E04150510961097109481759076A07AB
:1016F0007B0708F41DC12F5F208382E491E00E94E4
:101700005300F4018081482F50E060E070E08F705A
:101710008A3008F40BC1895A80936C01E4E0769515
:10172000679557954795EA95D1F74A3008F4FCC07C
:10173000495A40936B01EBE6F1E08091C00085FFD0
:10174000FCCF4093C60021E0EC36F20719F041814E
:101750003196F3CF8091C00086FFFCCF84E191E009
:101760000E945300802F8C7309F0D4C002FF5ACF1F
:1017700089E491E00E9453008BB1837C8BB98BB1DB
:101780008BB95E9A84E600000000000000000000B3
:101790000000000000008150B1F75E9884E6000070
:1017A0000000000000000000000000000000815068
:1017B000B1F784E600000000000000000000000017
:1017C000000000008150B1F784E600000000000036
:1017D000000000000000000000008150B1F784E626
:1017E00000000000000000000000000000000000F9
:1017F0008150B1F78BB1837C8BB95A9A5E9A84E69B
:1018000000000000000000000000000000000000D8
:101810008150B1F75E9884E60000000000000000EF
:1018200000000000000000008150B1F784E60000D5
:1018300000000000000000000000000000008150D7
:10184000B1F784E600000000000000000000000086
:10185000000000008150B1F784E6000000000000A5
:10186000000000000000000000008150B1F784E695
:101870000000000000000000000000000000000068
:101880008150B1F784E60000000000000000000075
:101890000000000000008150B1F784E60000000065
:1018A0000000000000000000000000008150B1F7BF
:1018B00084E60000000000000000000000000000BE
:1018C00000008150B1F78FEE9EEBADEABEED89834B
:1018D0009A83AB83BC83809169018D8380916A0177
:1018E0008E8348E050E06AE270E0CE0101960E94EB
:1018F000E00D33CD83E391E00E94530011119FCEA0
:1019000080916A0111E0AAE68A2EA1E09A2EB2E344
:10191000BB2E9ECEF4016081812F0E94240426CF2D
:10192000805DBACE205DABCE405D03CF805DF4CE4E
:10193000F401B082E2CEF401D08292CE205D48CE96
:10194000895A53CE289815BC63CE8D818093690146
:101950008E8180936A0187E191E00E94530020917B
:101960006901822F90E0A0E0B0E02F702A3018F1DA
:10197000295A20936C01F4E0B695A7959795879521
:10198000FA95D1F78A30C8F0895A80936B010BE63B
:1019900011E0ECE6EE2EE1E0FE2EF8019091C000A1
:1019A00095FFFCCF8093C60031E0EC36F30739F0A9
:1019B00081813196F3CF205DDCCF805DE6CF8091D1
:1019C000C00086FFFCCF80E691E00E94530020918A
:1019D0006A01822F90E0A0E0B0E02F702A30E8F09A
:1019E000295A20936C0174E0B695A7959795879531
:1019F0007A95D1F78A3098F0895A80936B0190914B
:101A0000C00095FFFCCF8093C600E016F10649F0B8
:101A1000F80181810F5F1F4FF2CF205DE2CF805D23
:101A2000ECCF8091C00086FFFCCF84E191E00E9462
:101A300053008091690181110EC081E0809369019A
:101A400080916A01882369F0833308F468CC82E3CB
:101A500080936A0164CC853698F384E680936901AB
:101A6000EFCF81E080936A015ACCA29FB001B39F6F
:101A7000C001A39F01D0B29F700D811D1124911D43
:101A80000895DB018F939F930E94730DBF91AF91D7
:101A9000A29F800D911DA39F900DB29F900D1124C8
:101AA0000895A1E21A2EAA1BBB1BFD010DC0AA1F9F
:101AB000BB1FEE1FFF1FA217B307E407F50720F0B7
:101AC000A21BB30BE40BF50B661F771F881F991F32
:101AD0001A9469F760957095809590959B01AC017B
:101AE000BD01CF0108950E94350DA59F900DB49FB3
:101AF000900DA49F800D911D112408952F923F9267
:101B00004F925F926F927F928F929F92AF92BF920D
:101B1000CF92DF92EF92FF920F931F93CF93DF93B9
:101B2000CDB7DEB7CA1BDB0B0FB6F894DEBF0FBE16
:101B3000CDBF09942A88398848885F846E847D8463
:101B40008C849B84AA84B984C884DF80EE80FD8065
:101B50000C811B81AA81B981CE0FD11D0FB6F894DB
:101B6000DEBF0FBECDBFED0108950E94BE0D84FF04
:101B70000895CB010E94BE0D805F0895AA27992386
:101B800029F4A85F982B11F480E10895903118F49E
:101B9000AD5F9295A395990FE8F78A2F992708953D
:101BA000DC01CB01FC01F999FECF06C0F2BDE1BD1D
:101BB000F89A319600B40D9241505040B8F708950C
:101BC000DC01CB0103C02D910E94EB0D4150504030
:101BD000D0F70895262FF999FECF1FBA92BD81BD87
:101BE00020BD0FB6F894FA9AF99A0FBE019608959F
:041BF000F894FFCF97
:101BF400500159016261645F656570726F6D5F6D5C
:101C0400616769630D0A00676F6F645F6565707271
:101C14006F6D5F6D616769633A2000656E7465720C
:101C24000D0A006D6F64650D0A006D696E75733A77
:101C34002000706C75733A2000736176650D0A009C
:101C4400706172616C6C656C007365726965732098
:021C540020006E
:00000001FF
